:020000040800F2
:1000000008080020951F0008391200083B1200085C
:100010003F120008431200084712000800000000C9
:100020000000000000000000000000004B1200086B
:100030004D120008000000004F1200085112000885
:10004000AF1F0008AF1F0008AF1F0008AF1F000858
:10005000AF1F0008AF1F0008AF1F0008AF1F000848
:10006000AF1F0008AF1F0008AF1F0008AF1F000838
:10007000AF1F0008AF1F0008AF1F0008AF1F000828
:10008000AF1F0008AF1F0008AF1F0008AF1F000818
:10009000AF1F0008AF1F0008AF1F0008AF1F000808
:1000A000AF1F0008AF1F0008AF1F0008AF1F0008F8
:1000B000AF1F00081B160008AF1F0008AF1F000885
:1000C000AF1F0008AF1F0008AF1F0008AF1F0008D8
:1000D000AF1F00080B1F0008AF1F00083F180008E3
:1000E000AF1F0008AF1F0008AF1F0008AF1F0008B8
:1000F000AF1F0008AF1F0008AF1F0008AF1F0008A8
:10010000AF1F0008AF1F0008AF1F0008AF1F000897
:10011000AF1F0008AF1F0008AF1F0008AF1F000887
:10012000AF1F0008AF1F0008AF1F0008AF1F000877
:1001300000F002F800F04AF80AA090E8000C8244AF
:100140008344AAF10107DA4501D100F03FF8AFF28C
:10015000090EBAE80F0013F0010F18BFFB1A43F0A5
:1001600001031847545E0000745E0000103A24BF7B
:1001700078C878C1FAD8520724BF30C830C144BF0C
:1001800004680C607047000000230024002500264E
:10019000103A28BF78C1FBD8520728BF30C148BFEA
:1001A0000B607047662905F0BA86642903F08487DE
:1001B000002070471FB504F0DDFA04000020002184
:1001C00005F01AF8E0601FBD10B510BD04F0D2FBB9
:1001D0001146FFF7EFFF00F062FB04F0F0FB03B401
:1001E000FFF7F2FF03BC01F035FE000001B502E0AD
:1001F0000098401E009000980028F9D108BD70B505
:10020000FC49FD48006805F0E3FD01D2012400E04F
:100210000024FA49F848006805F0DAFC01D2012010
:1002200000E00020044074B3F548006805F040FB8E
:1002300004460022F34B05F005FB01D2012400E047
:1002400000244FF08241EE48006805F0C1FC01D265
:10025000012000E000200440ACB1EB48006805F04C
:1002600027FB04464FF06632E84B05F0EBFA0BD261
:10027000E7A1ED4803F00CFFEB4801F028FBFF205D
:1002800001F03BFB0AE3FFE7E849DB48006805F0C3
:100290009FFD01D2012400E00024E549D648006812
:1002A00005F096FC01D2012000E00020044044B398
:1002B000E049D348006805F08BFD01D2012400E03D
:1002C0000024DD49CE48006805F082FC01D20120FF
:1002D00000E000200440A4B1CB48006805F0E8FA33
:1002E0000446D64AD64B05F073F90AD2D5A1CE48BA
:1002F00003F0CEFECC4801F0EAFAFF2001F0FDFA4F
:10030000CCE24FF08041BC48006805F061FD01D2AD
:10031000012400E00024D149B748006805F058FCEA
:1003200001D2012000E0002004404CB34FF0814195
:10033000B348006805F04CFD01D2012400E0002420
:10034000C749AF48006805F043FC01D2012000E036
:1003500000200440A4B1AC48006805F0A9FA0446A6
:10036000B64AB74B05F034F90AD2BEA1AE4803F045
:100370008FFEAD4801F0ABFAFF2001F0BEFA8DE22E
:100380004FF080419C48006805F022FD01D2012415
:1003900000E00024B1499848006805F019FC01D23A
:1003A000012000E00020044084B39548006805F077
:1003B0007FFA0446A14AB14B05F044FA01D2012666
:1003C00000E000268E48006805F072FA04469B4A59
:1003D000AB4B05F0FDF801D2012000E00020064003
:1003E000A6B18948006805F063FA0446934A944B25
:1003F00005F0EEF80BD2A3A18B4803F049FE8A4822
:1004000001F065FAFF2001F078FA47E2FFE7A3491F
:100410007948006805F0DCFC01D2012400E00024EA
:100420009F497548006805F0D3FB01D2012000E028
:1004300000200440D4B180497148006805F0C8FC30
:1004400014D27148006805F033FA04467B4A7C4BAD
:1004500005F0BEF80AD293A1734803F019FE724862
:1004600001F035FAFF2001F048FA17E27B496248B3
:10047000006805F0ADFB2CD290496148006805F09A
:10048000A7FC01D2012600E000265D48006805F0C7
:100490000FFA044600228A4B05F09AF801D2012097
:1004A00000E000200640A6B15748006805F000FAB9
:1004B0000446624A624B05F08BF80AD281A15A4881
:1004C00003F0E6FD584801F002FAFF2001F015FAAA
:1004D000E4E182494848006805F07AFB1ED24848AA
:1004E000006805F0E5F90446544A7D4B05F0AAF989
:1004F00014D24548006805F0DBF904464F4A504BDA
:1005000005F066F80AD277A1474803F0C1FD4648D6
:1005100001F0DDF9FF2001F0F0F9BFE1774936483D
:10052000006805F055FC01D2012400E000243349A5
:100530003148006805F04CFB01D2012000E00020AA
:100540000440D4B15D492E48006805F041FC14D246
:100550002D48006805F0ACF90446384A384B05F0E0
:1005600037F80AD266A1304803F092FD2E4801F018
:10057000AEF9FF2001F0C1F990E100211E480068AA
:1005800005F026FC01D2012400E0002453491A485A
:10059000006805F01DFB01D2012000E000200440AE
:1005A0003CB300211648006805F012FC01D2012678
:1005B00000E000261248006805F07AF904461F4A58
:1005C0002E4B05F005F801D2012000E00020064086
:1005D0007EB10D48006805F06BF90446174A184BC8
:1005E00004F0F6FF05D24CA10F4803F051FD0E4870
:1005F0009EE0A3E00080D4440800002000409C4519
:100600001800002000001E401C0000206666E63F27
:1006100070616765322E74322E7478743D224E6F8D
:10062000726D616C220000007800002000401C46C2
:100630000050C34700001041000040419A99999929
:100640009999C93F70616765322E74322E7478743F
:100650003D2252316F70656E220000000000FA43A7
:100660000000A04070616765322E74322E74787479
:100670003D2252326F70656E220000009999B93F99
:100680009999D93F70616765322E74322E747874EF
:100690003D2252336F70656E220000000000FA4563
:1006A00000606A4670616765322E74322E74787409
:1006B0003D2252346F70656E220000000000304110
:1006C0000000274070616765322E74322E74787492
:1006D0003D22523173686F7274220000000048435B
:1006E0009999274070616765322E74322E74787440
:1006F0003D22523273686F72742200000000E144A0
:1007000070616765322E74322E7478743D225233D4
:1007100073686F727422000070616765322E7432E4
:100720002E7478743D22523473686F727422000004
:1007300001F0CDF8FF2001F0E0F8AFE0F949FA4808
:10074000006805F045FA05D3F849F748006805F058
:100750003FFB29D2F649F748006805F039FB01D282
:10076000012400E000244FF08241F248006805F0C7
:100770002FFA01D2012000E000200440A4B1EE488D
:10078000006805F095F80446EC4AED4B04F020FFB4
:100790000AD2ECA1F14803F07BFCF04801F097F895
:1007A000FF2001F0AAF879E0ED49DF48006805F084
:1007B0000FFB01D2012400E00024EA49DA48006876
:1007C00005F006FA01D2012000E00020044044B305
:1007D000E549D848006805F0FBFA01D2012400E0A1
:1007E0000024E249D348006805F0F2F901D2012063
:1007F00000E000200440A4B1CF48006805F058F89C
:100800000446CE4ACE4B04F0E3FE0AD2D8A1D34828
:1008100003F03EFCD14801F05AF8FF2001F06DF8DA
:100820003CE0D949C048006805F0D2FA01D2012461
:1008300000E00024D549BC48006805F0C9F901D2A0
:10084000012000E00020044044B3B949B9480068E1
:1008500005F0BEFA01D2012600E00026B548006886
:1008600005F026F804460022C94B04F0B1FE01D27F
:10087000012000E00020064086B14FF07E51AE48D6
:10088000006805F0A5FA09D2C2A1B44803F000FC43
:10089000B24801F01CF8FF2001F02FF870BD1CB524
:1008A00001F06EFA4FF4A06001F094FB4FF4E130D8
:1008B00001F0DFFA00F0BEFD00F047FE4FF41650E5
:1008C00000F06EFF00F05DFF01F0FCF84FF47A706D
:1008D00001F024FAA9E3B548007801287ED1B44894
:1008E000007801287BD10020B2490860B249C1F8E4
:1008F00080014FF47A7001F080FAB049488805F021
:1009000053F981464FF08B4105F06CF8044604F032
:10091000CFFF07464FF06632A94B04F095FE05461F
:1009200004F080FCA74908600846006804F0C0FF96
:10093000044622460B46A4A003F09EFB0120A849D2
:10094000086041F2883001F058FA9C49488805F067
:100950002BF981464FF08B4105F044F8044604F032
:10096000A7FF07464FF06632954B04F06DFE054633
:100970000E4604F057FC9B4908600846006804F0E6
:1009800097FF044622460B4697A003F075FB954857
:1009900001688C48006805F04DFA04469849914872
:1009A000006805F049F90546214605F01BF85E4947
:1009B000086000215C48006805F00AF902D20020B6
:1009C000594908605848006804F072FF04462246FE
:1009D0000B468CA003F050FB534801E0C7E115E043
:1009E000006804F065FF04460D4622462B4689A1A7
:1009F0005A4803F04DFB594800F069FFFF2000F012
:100A00007CFF0020764908606949087086480078B4
:100A100001287DD1724908608449C1F8B40141F2CE
:100A2000883001F0EAF900206349C1F88401634984
:100A3000488805F0B9F881464FF08B4104F0D2FFA9
:100A4000044604F035FF07464FF066325C4B04F075
:100A5000FBFD054604F0E6FB5A49086008460068BD
:100A600004F026FF044622460B4657A003F004FB81
:100A700001205149C1F8840141F2883001F0BDF9EB
:100A80004E49488805F090F881464FF08B4104F0BC
:100A9000A9FF044604F00CFF07464FF06632484BAE
:100AA00004F0D2FD05460E4604F0BCFB4D4908603B
:100AB0000846006804F0FCFE044622460B464AA0A5
:100AC00003F0DAFA474801683E48006805F0B2F9D9
:100AD0000546574905F0B0F80446424801682046EB
:100AE00004F080FF5349086000215248006805F077
:100AF0006FF802D200204F4908604E48006804F0A9
:100B0000D7FE044622460B464BA003F0B5FA00E0A0
:100B1000ACE04848006804F0CBFE04460D4622468F
:100B20002B4691E000002041080000200050434780
:100B30000000E040180000201C0000209A999999BC
:100B40009999C93F70616765322E74322E7478743A
:100B50003D2243316F70656E220000007800002056
:100B60000000FA4500409C460000C04000001041D3
:100B700070616765322E74322E7478743D22433270
:100B80006F70656E220000000080D44400409C45D8
:100B900000001E4070616765322E74322E747874C6
:100BA0003D2243336F70656E220000003900002043
:100BB0003C000020B401224200002142D00000206D
:100BC00066660A40000000200D0A204144435F543D
:100BD000656D703120203D20256620200D0A000023
:100BE00080012142040000200D0A204144435F544B
:100BF000656D703220203D20256620200D0A000002
:100C000000007A440D0A20526920203D20256620EC
:100C1000200D0A0070616765312E74322E7478746D
:100C20003D22252E316622003D0000200000224298
:100C300000609F450C0000200D0A20526F20203DCF
:100C400020256620200D0A00F8A1FD4803F020FAB7
:100C5000FB4800F03CFEFF2000F04FFE0020F94969
:100C60000860F949C1F8B401F8490870F8480078FB
:100C700001287CD1F349091F08600020F249C1F81E
:100C8000B40141F2883001F0B8F8F249488804F024
:100C90008BFF81464FF08B4104F0A4FE044604F024
:100CA00007FE07464FF06632EB4B04F0CDFC0546DD
:100CB00004F0B8FAE94908600846006804F0F8FD55
:100CC000044622460B46AFF2001003F0D5F901208E
:100CD000E349086041F2883001F08FF8DD49488827
:100CE00004F062FF81464FF08B4104F07BFE044626
:100CF00004F0DEFD07464FF06632D74B04F0A4FC4B
:100D0000054604F08FFAD74908600846006804F0E9
:100D1000CFFD044622460B46AFF2341003F0ACF987
:100D2000CE48006804F0C4FD06464FF03332CE4B87
:100D300004F0B6FA04460D46CA48006804F0B8FD4F
:100D40008046894622462B4604F0AAFA824604F0E1
:100D500069FAC64908600021C448006804F038FFF9
:100D600002D20020C1490860C048006800E022E0CB
:100D700004F09EFD044622460B46AFF2441003F0F9
:100D80007BF9BA48006804F093FD04460D462246FC
:100D90002B46B7A1AA4803F07BF9A94800F097FDBC
:100DA000FF2000F0AAFD0020A6490860A649C1F86E
:100DB000B401A7490870B348007801287DD1A14942
:100DC000091F08600020B049C1F8840101209E4934
:100DD000C1F8B4019F49488804F0E6FE4FF08B410A
:100DE000009004F0FFFD019004F062FD07464FF013
:100DF0006632994B04F028FC824604F013FAA349AA
:100E0000086000249EE09F48007828B94FF47A7566
:100E1000284600F083FF99E00A2C06D8642004FBE2
:100E200000F5284600F07AFF16E00A2C0BD9642C56
:100E300009D24FF47A7004FB00F5014604FB01F07F
:100E400000F06CFF08E0A4F164009149642202FB09
:100E50000015284600F062FF0A2000F0CEFF7D4911
:100E6000488804F0A1FE4FF08B41009004F0BAFDD9
:100E7000019004F01DFD82464FF06632764B04F07F
:100E8000E3FB074604F0CEF98146484604F010FD26
:100E900007463A460B467FA1694803F0F9F86848CF
:100EA00000F015FDFF2000F028FD7848006804F0F0
:100EB000FFFC82467C4A7D4B00E058E004F0C4FB16
:100EC00007468846484604F0F3FC3A464346CDE9D7
:100ED000000104F07DFB20D86C48006804F0E8FCB9
:100EE00007464FF06632724B04F0AEFB82468B46EB
:100EF000484604F0DDFC52465B46CDE9000104F0B3
:100F0000A1FC0AD82A466BA14D4803F0C1F84C4811
:100F100000F0DDFCFF2000F0F0FC49466A4804F0D8
:100F20008BFE8146484604F01FFEC6B2324667A1DA
:100F3000434803F0ADF8424800F0C9FCFF2000F040
:100F4000DCFC641CB4F5B47F7FF65DAF00BF00200D
:100F50003C49091F08604C49C1F8840140490860B8
:100F6000484908704FF47A7000F0D8FE00BF5A4824
:100F70000078012859D1594800780128FAD1002079
:100F8000374908604049C1F880014FF47A7000F099
:100F900034FF3049488804F007FE81464FF08B410A
:100FA00004F020FD044604F083FC07464FF066324F
:100FB000294B04F049FB054604F034F92749086041
:100FC0000846006804F074FC044622460B46AFF263
:100FD000084003F051F801201A49091F086041F246
:100FE000883000F00AFF1B49488804F0DDFD814687
:100FF0004FF08B4104F0F6FC044604F059FC074620
:101000004FF06632144B04F01FFB054604F00AF95A
:1010100014490860084601681048006804F00AFF97
:1010200004462F490F4800685CE0EBE0706167659B
:10103000312E74342E7478743D22252E31662200B0
:101040007800002084012142000022423D0000205F
:101050003E000020D000002066660A40000000200C
:10106000B40122420400002033735A4010000020D3
:1010700070616765312E74362E7478743D22252E8A
:10108000316622003F0000200000214214000020B1
:10109000A086010070616765332E74342E747874F5
:1010A0003D22252E33662200B81E85EB51B8E63F5F
:1010B0006666E63F70616765332E74312E7478740E
:1010C0003D222564220000000000C84261646420C3
:1010D000322C302C256400003A0000203B00002018
:1010E00000007A4404F0A8FD0546214604F07AFC8D
:1010F0004549086000214448006804F069FD02D2B7
:1011000000204149086041493F48006804F060FE02
:1011100002D23E483C49086000203D4908604FF437
:101120007A7000F06AFE00203A49C1F8800138491F
:10113000091D08603849C1F8B4014FF47A7000F015
:101140005CFE3649888804F02FFD81464FF08B41C4
:1011500004F048FC044604F0ABFB07464FF066324F
:101160002F4B04F071FA054604F05CF82D49086035
:101170004FF081412B48006804F05EFD2A49086069
:101180002848006804F094FB044622460B46AFF260
:10119000C85002F071FF4FF47A7000F02EFE01206B
:1011A0001B490860214908604FF47A7000F025FE61
:1011B0001A49488804F0F8FC81464FF08B4104F04E
:1011C00011FC044604F074FB07464FF06632144BE2
:1011D00004F03AFA05460E4604F024F81149086076
:1011E00008460068124908604FF47A7000F005FE66
:1011F000002007490860091D0860FFF700F800207B
:101200000C490870FFF767BB0800002000409C47AE
:10121000800121420000214200002242D000002033
:1012200066660A400000002018000020B401224237
:101230001C0000203B000020704700BFFEE700BFFD
:10124000FEE700BFFEE700BFFEE77047704770474C
:10125000704700000CB50020019000906C480068B9
:1012600040F480306A49086000BF6948006800F4B3
:10127000003000900198401C0190009818B9019826
:10128000B0F5A06FF1D16248006800F4003010B1F1
:101290000120009001E0002000900098012843D137
:1012A0005C48006840F010005A4908600846006831
:1012B00020F0030008600846006840F00200086063
:1012C00053484068524948600846406848600846AC
:1012D000406840F4806048600846406820F47C1014
:1012E00048600846406840F4E810486008460068D6
:1012F00040F08070086000BF4548006800F0007052
:101300000028F9D04248406820F003004049486076
:101310000846406840F00200486000BF3C48406812
:1013200000F00C000828F9D10CBD10B5FFF792FFB2
:1013300010BD10B53648006840F00100344908601F
:10134000084640683449084031494860084600680A
:10135000324908402E4908600846006820F4802081
:1013600008600846406820F4FE0048604FF41F0003
:101370008860FFF7DAFF4FF000602949086010BD70
:1013800010B5002100200022214B5B6803F00C0106
:1013900021B1042906D0082928D107E0214B224C8D
:1013A000236027E01F4B204C236023E0184B5B6831
:1013B00003F47010164B5B6803F48032022303EBD6
:1013C000904022B9194B4343174C23600DE0104B5A
:1013D0005B6803F4003323B1144B4343124C236086
:1013E00003E0104B4343104C236003E00D4B0E4CC5
:1013F000236000BF00BF064B5B68C3F303130C4CB4
:10140000E15C094B1B68CB40074C236010BD00001A
:1014100000100240002002400000FFF8FFFFF6FE2F
:1014200008ED00E000127A002400002000093D00D1
:101430002800002008B50121482001F055F920209E
:10144000ADF8000010208DF8030003208DF8020095
:101450006946094800F08CFE2021074800F035FF5E
:101460002020ADF800006946044800F081FE2021EC
:10147000024800F02AFF08BD000C0140001801409E
:1014800008B50121442001F02FF91820ADF8000023
:1014900048208DF803006946454800F069FE0120A8
:1014A000ADF8000028208DF803006946414800F09F
:1014B0005FFE08BD10B5044614B101203E49087016
:1014C0003D48007858B31021394800F0E4FE50B18F
:1014D0000821374800F0DFFE28B10121354800F02F
:1014E000DAFE01281BD10A2000F087FC00203249D7
:1014F000087010212E4800F0CEFE08B9012010BD62
:1015000008212B4800F0C7FE08B90220F7E70121A7
:10151000284800F0C0FE012815D10320EFE7102174
:10152000234800F0B8FE01280DD10821204800F022
:10153000B2FE012807D101211E4800F0ACFE10B90F
:1015400001201D4908700020D9E708B501210420B9
:1015500001F0CAF80121102001F0C6F84FF4005044
:10156000ADF8000010208DF8030003208DF8020074
:101570006946124800F0FCFD0320ADF80000102081
:101580008DF8030003208DF802006946094800F039
:10159000EFFD0121074800F09AFE0221054800F006
:1015A00096FE4FF40051054800F091FE08BD000082
:1015B00000180140000801403800002000100140E0
:1015C0007FB505460C460121022001F09AF8ADF8DE
:1015D0000850ADF804400020ADF80A00ADF8060050
:1015E00001A9174801F0B8F901221146144801F089
:1015F0002AFD1D208DF8000000208DF80100032039
:101600008DF8020001208DF80300684600F0E7FC29
:1016100001210B4801F0FCFC7FBD10B501210848F9
:1016200001F0BFFF58B10121054801F0CBFF05488B
:10163000006808B9012000E000200249086010BDE0
:10164000000400409401234208B50121102001F05C
:101650004BF83E20ADF8000000208DF803006946ED
:101660004B4800F085FD08BD00B591B0012108464A
:1016700001F02DF80121480201F036F8454802F04A
:10168000A9F9454806904548079000200890062093
:10169000099000200A9080200B9040000C90800060
:1016A0000D9020200E9000020F900020109006A9AF
:1016B000384802F031FA0121364802F058FA002089
:1016C000019001208DF808008DF809004FF460208A
:1016D00003900020049006208DF8140001A92E48E4
:1016E0004C3802F0C8FA4FF4404000F061FF052387
:1016F00002220B2128484C3802F055FB0523032217
:101700000C2125484C3802F04EFB052304220D2104
:1017100021484C3802F047FB05231A460E211E488B
:101720004C3802F040FB052306220F211A484C38A2
:1017300002F039FB012118484C3802F0D3FA01219C
:1017400015484C3802F0C3FA13484C3802F0E1FA5D
:1017500000BF11484C3802F0E1FA0028F9D10E48D8
:101760004C3802F0E5FA00BF0B484C3802F0E5FABD
:101770000028F9D1012108484C3802F0E8FA11B0EC
:1017800000BD10B5FFF760FFFFF76EFF10BD000052
:1017900000100140080002404C240140D00000200D
:1017A00010B586B004460121082000F09DFF0121FC
:1017B000880400F0A6FF4FF48060ADF81400032009
:1017C0008DF8160018208DF8170005A9574800F06D
:1017D000CFFC4FF40060ADF8140004208DF8170022
:1017E00005A9524800F0C4FC27208DF80000032012
:1017F0008DF801008DF8020001208DF80300684685
:1018000000F0EDFB01940020ADF80800ADF80A00EF
:10181000ADF80C00ADF810000C20ADF80E0001A9D9
:10182000434801F016FF012240F22551404801F0E3
:10183000A8FF01213E4801F098FF06B010BD10B589
:1018400040F225513A4802F081F800283ED038484D
:1018500001F0FCFFC4B2012C03D10120354908700E
:1018600034E0022C03D10120334908702EE0032C10
:1018700003D100202F49087028E0042C03D1002058
:101880002E49087022E0052C03D101202B49087055
:101890001CE0062C03D101202949087016E0072C12
:1018A00003D100202649087010E0102C03D101203C
:1018B000244908700AE0112C03D101202249087044
:1018C00004E0122C02D101202049087010BD70B52F
:1018D0000446002510E0605D68B1615D144801F0C8
:1018E000B1FF00BF8021124802F01AF80028F9D099
:1018F000681CC5B200E070BDEDE770B50446002578
:101900000FE05CB121460A4801F09CFF00BF802136
:10191000074802F005F80028F9D000E070BD681C07
:10192000C5B2032DEDDB00BFF8E70000000C01405D
:1019300000480040390000203A0000203B00002011
:101940003F0000203C0000203D0000203E00002021
:1019500000EB4001880000BF0100A0F10100FBD1B5
:10196000704700B50020F54908600220FFF7F0FF3E
:101970000120F349C1F880010420FFF7E9FF0020AE
:10198000EE49086000BD2DE9F04705460E461746B2
:1019900098464FF00009CA4600240023A9460020BB
:1019A000E649091D0860E749C1F8980100BF18E041
:1019B0000020E249091D086009F08000802803D159
:1019C0000120E149086002E00020DF4908600120B1
:1019D000DA49091D08604FEA49604FEA1069581C4E
:1019E000C3B2082BE4DB0020D449091D08600024A1
:1019F00024E017F804A0002318E00020CF49091DB7
:101A000008600AF08000802803D10120CE490860D8
:101A100002E00020CC4908600120C849091D086087
:101A20004FEA4A604FEA106A581CC3B2082BE4DB45
:101A30000020C249091D0860601CC4B2B442D8DB52
:101A4000B8F1000F01D0FFF78CFF0120BE49091D3E
:101A50000860BDE8F08700B50020BB49143108607C
:101A60000120FFF775FF0120B649C1F8A8011E202B
:101A7000FFF76EFF0020B4491431086000BD00205C
:101A8000B149103108600120AE49C1F89801002029
:101A9000AA49091D0860091F0860AB4908310860A0
:101AA000A9490C390860A54924310860A749086094
:101AB000A5490860091F0860091F0860A149C1F80D
:101AC000A00170471CB5A2A00068009001211C2055
:101AD00000F00AFE40F2FC70ADF8040010208DF812
:101AE000070002208DF8060001A99A4800F040FB8B
:101AF00040F20320ADF8040010208DF8070002200A
:101B00008DF8060001A9944800F032FB0120ADF8E1
:101B1000040010208DF8070002208DF8060001A9AE
:101B20008E4800F025FBFFF7AAFFFFF794FF012383
:101B30006A4603211846FFF726FF0123884A02213F
:101B40000846FFF720FF1CBD78B504460E4600206E
:101B5000009046F48055E8B28DF8020028128DF806
:101B6000010064B901237F4A19460020FFF70BFFEB
:101B700001236A4603210620FFF705FF2BE0012C15
:101B80000CD10123784A19460020FFF7FCFE0123FF
:101B90006A4603210620FFF7F6FE1CE0022C0CD15A
:101BA0000123724A19460020FFF7EDFE01236A4621
:101BB00003210620FFF7E7FE0DE0032C0BD10123E4
:101BC0006B4A19460020FFF7DEFE01236A46032117
:101BD0000620FFF7D8FE78BD70B504460D460026F6
:101BE0002E4664494E703012087064B901235D4A74
:101BF00019460020FFF7C7FE01235E4A0221052097
:101C0000FFF7C1FE2BE0012C0CD10123564A1946E7
:101C10000020FFF7B8FE0123564A02210520FFF7F6
:101C2000B2FE1CE0022C0CD10123504A19460020C0
:101C3000FFF7A9FE01234F4A02210520FFF7A3FE6B
:101C40000DE0032C0BD10123494A19460020FFF770
:101C50009AFE0123474A02210520FFF794FE70BD3A
:101C60002DE9F84F04468A4600200090504603F0C4
:101C70009CFC0746404A414B03F0E6FC054603F056
:101C800067FC814609F0FF008DF803004FEA192038
:101C90008DF802004FEA19408DF801004FEA1960F3
:101CA0008DF8000064B901232E4A19460020FFF781
:101CB0006AFE01236A4604210846FFF764FE2BE012
:101CC000012C0CD10123284A19460020FFF75BFEA6
:101CD00001236A4604210846FFF755FE1CE0022C4A
:101CE0000CD10123214A19460020FFF74CFE0123A5
:101CF0006A4604210846FFF746FE0DE0032C0BD18F
:101D000001231B4A19460020FFF73DFE01236A46C6
:101D100004210846FFF737FEBDE8F88F10B50446EA
:101D200021460320FFF79CFF00210320FFF754FF0B
:101D30003C210320FFF708FF10BD000080812142F5
:101D40000080214200002142940121428001224270
:101D5000D000000000080140000C014000100140CC
:101D600045000020410000204200002043000020E8
:101D7000440000204A00002095D626E80B2E214082
:101D800010B56FF0040000F074F92E4800682E4979
:101D9000B0FBF1F02D4908700846007800EB4001D7
:101DA000C1EBC0104FF6FF7101EAC000284908805E
:101DB00010BD0146254A12784A434FF0E0235A618C
:101DC00000229A611A46126942F001021A6100BFAC
:101DD0004FF0E022106900F001021AB100F48032E5
:101DE000002AF5D04FF0E022126922F001024FF0F4
:101DF000E0231A6100229A6170470146144A128852
:101E00004A434FF0E0235A6100229A611A46126950
:101E100042F001021A6100BF4FF0E022106900F0A9
:101E200001021AB100F48032002AF5D04FF0E0220E
:101E3000126922F001024FF0E0231A6100229A6138
:101E4000704700002400002000127A005600002095
:101E500058000020014600BF704700BF494A128861
:101E600002F04002002AF9D0C2B2464B1B1D1A8074
:101E7000704710B586B00446012144F2040000F01A
:101E800033FC4FF40070ADF8140003208DF81600F9
:101E900018208DF8170005A93B4800F069F94FF4A8
:101EA0008060ADF8140004208DF8170005A93648AD
:101EB00000F05EF925208DF8000003208DF8010068
:101EC0008DF8020001208DF80300684600F087F8C5
:101ED00001940020ADF80800ADF80A00ADF80C0040
:101EE000ADF810000C20ADF80E0001A9254801F056
:101EF000B0FB012240F22551224801F042FC0121B1
:101F0000204801F032FC06B010BD10B540F225515A
:101F10001C4801F01BFD10B31A4801F097FCC4B235
:101F20001A48008800F40040C8B91848008800F436
:101F3000804060B10A2C03D000201449088020E0C2
:101F40001248008840F400401049088019E00D2C28
:101F500006D10E48008840F480400C49088010E00B
:101F60000A480088C0F30D0009490C54074800884E
:101F7000401C0649088008460088C72801DD00206B
:101F8000088010BD003801400008014060000020BA
:101F9000DC0000200948804709480047FEE7FEE7CB
:101FA000FEE7FEE7FEE7FEE7FEE7FEE7FEE7FEE709
:101FB00004480549054A064B7047000033130008E2
:101FC0003101000808020020080800200804002051
:101FD0000804002031490143314A1160704770B54F
:101FE000002100230F22C47804B32D4C246804F48C
:101FF000E064C4F5E064210AC1F10403CA404478F6
:1020000004FA03F18478144021430901254C067831
:10201000A155047804F01F050124AC4005786D112A
:10202000AD0005F1E025C5F8004109E0047804F0B1
:102030001F050124AC401C4D0678761145F826405A
:1020400070BD1A4A0A400243154B1B1F1A607047A5
:1020500039B1134A121D12680243114B1B1D1A603D
:1020600006E00F4A121D126882430D4B1B1D1A60B9
:102070007047042808D14FF0E021096941F00401BC
:102080004FF0E022116107E04FF0E021096921F0F3
:1020900004014FF0E0221161704700000000FA05D2
:1020A0000CED00E000E400E080E100E080FFFF1FB5
:1020B00010B50446CC48844208D10121042000F028
:1020C0002DFB0021042000F029FB46E0C748844294
:1020D00008D10121082000F021FB0021082000F098
:1020E0001DFB3AE0C248844208D10121102000F0D3
:1020F00015FB0021102000F011FB2EE0BD488442AA
:1021000008D10121202000F009FB0021202000F04F
:1021100005FB22E0B848844208D10121402000F0AC
:10212000FDFA0021402000F0F9FA16E0B34884429D
:1021300008D10121802000F0F1FA0021802000F078
:10214000EDFA0AE0AE48844207D10121801500F083
:10215000E5FA0021A01500F0E1FA10BD10B501214B
:10216000084600F0DBFA0021012000F0D7FA10BD8C
:102170002DE9F0410246002500260020002300241E
:10218000002791F803C00CF00F0591F803C00CF084
:10219000100CBCF1000F03D091F802C04CEA050509
:1021A00091F800C0BCF1000F31D0146800202BE082
:1021B0004FF0010C0CFA00F3B1F800C00CEA030672
:1021C0009E4220D183004FF00F0C0CFA03F7BC4362
:1021D00005FA03FC4CEA040491F803C0BCF1280F93
:1021E00006D14FF0010C0CFA00FCC2F814C00AE052
:1021F00091F803C0BCF1480F05D14FF0010C0CFA67
:1022000000FCC2F810C0401C0828D1D31460B1F8FB
:1022100000C0BCF1FF0F34DD546800202EE000F157
:10222000080C4FF0010808FA0CF3B1F800C00CEAF2
:1022300003069E4221D183004FF00F0C0CFA03F7E6
:10224000BC4305FA03FC4CEA040491F803C0BCF15A
:10225000280F05D100F1080C08FA0CF8C2F8148018
:1022600091F803C0BCF1480F07D100F1080C4FF002
:10227000010808FA0CF8C2F81080401C0828CED3D8
:102280005460BDE8F0814FF6FF710180022181703A
:102290000421C17070470246002093680B400BB1C7
:1022A000012000E0002070470146886880B2704736
:1022B00002460020D3680B400BB1012000E0002053
:1022C00070470146C86880B270470161704741613C
:1022D00070470AB1016100E041617047C160704719
:1022E0004FF480320A43826181618261826982692E
:1022F000704702460020434B18684FF68073184021
:1023000040EA021008433F4B186070473E49C861DD
:102310007047F0B50A46002300240021002500F094
:102320000046B6F1004F02D1364EF16901E0354E5C
:102330007168C0F3034583B200F44016B6F5401F40
:1023400008D121F070612F4E766826F070662D4F0F
:102350007E6012E000F48016B6F5801F06D10326D9
:1023600006FA05F4A14341F0706106E0460D36011E
:1023700003FA06F6B14341F0706122B1460D360111
:1023800003FA06F6314300F00046B6F1004F02D1E1
:102390001C4EF16101E01B4E7160F0BD30B50022B2
:1023A0008B071C0F0F2303FA04F2164B08338C1013
:1023B00053F824309343134C08348D1044F82530DF
:1023C00023468C1053F824308C07240F00FA04F4B1
:1023D00023430C4C08348D1044F8253030BD0A4995
:1023E000DC3108607047000000080140000C01402B
:1023F000001001400014014000180140001C014081
:10240000002001400000014000002042DF48006839
:1024100040F00100DD49086008464068DC4908409A
:10242000DA49486008460068DA490840D749086038
:102430000846006820F4802008600846406820F4C0
:10244000FE0048604FF41F0088607047CF4909685C
:1024500021F48031CD4A11601146096821F48021B0
:102460001160B0F5803F03D0B0F5802F0ED106E0AB
:10247000C649096841F48031C44A116007E0C34984
:10248000096841F4A021C14A116000E000BF00BF0B
:10249000704710B501460022002300204A11012A8E
:1024A00002D1BA4C236806E0022A02D1B74C236A53
:1024B00001E0B64C636A01F01F02012494401C4005
:1024C0000CB1012000E0002010BD38B500200090C4
:1024D0000024002500BF3120FFF7DBFF05460098F0
:1024E000401C00900098B0F5A06F01D0002DF2D0F4
:1024F0003120FFF7CEFF08B1012400E00024204680
:1025000038BD01460020A14A106820F0F80040EADA
:10251000C10010607047A049086070470246002063
:102520009A4B586820F47C1042EA01031843974BF9
:102530005860704798490866704701460020934AE2
:10254000506820F003000843506070478F4840688F
:1025500000F00C007047014600208C4A506820F0C3
:10256000F00008435060704701460020874A5068D9
:1025700020F4E06008435060704701460020834A21
:10258000506820F4605040EAC1005060704729B1A3
:102590007E4A527A02437D4B5A7204E07B4A527A59
:1025A00082437A4B5A7270477B49D8310860704732
:1025B00001460020754A506820F4404008435060AE
:1025C00070470021714A20321170704A82F8201041
:1025D000012802D004280AD104E001216B4A2032EC
:1025E000117005E00521694A2032117000E000BF3A
:1025F00000BF70476949086070476449096A014330
:10260000624A11627047654944390860704730B5C5
:1026100000210022002400235C4D6D6805F00C01B0
:1026200021B1042905D0082923D105E05C4D0560BE
:1026300022E05B4D05601FE0544D6D6805F470129B
:10264000524D6D6805F48034022505EB92421CB9A9
:10265000544D554305600BE04C4D6D6805F4003555
:102660001DB1504D5543056002E04D4D5543056089
:1026700002E04B4D056000BF00BF444D6D6805F0A2
:10268000F0010909484D6B5C0568DD4045603F4D30
:102690006D6805F4E061090A434D6B5C4568DD40F7
:1026A00085603A4D6D6805F46051C90A3E4D6B5C1A
:1026B0004568DD40C560354D6D6805F44041890BC6
:1026C0003A4D6B5CC568B5FBF3F5056130BD29B1CA
:1026D0002E4A526902432D4B5A6104E02B4A52693B
:1026E00082432A4B5A61704729B1284A92690243B2
:1026F000264B9A6104E0254A92698243234B9A61F2
:10270000704729B1214AD2690243204BDA6104E0C3
:102710001E4AD26982431D4BDA61704729B11B4AB8
:10272000D2680243194BDA6004E0184AD268824347
:10273000164BDA60704729B1144A12690243134BF1
:102740001A6104E0114A12698243104B1A61704702
:1027500012494039086070470F49C86470470B49F7
:10276000C87170470948406A40F080700749486264
:10277000704701460020054A92680A400AB10120CC
:1027800000E0002070470149887270470010024045
:102790000000FFF8FFFFF6FE0000424280044242C4
:1027A00000127A0000093D00620000207200002043
:1027B00010B50446FE48844208D10121C014FFF739
:1027C000ADFF0021E014FFF7A9FFC4E0B4F1804F92
:1027D00008D101210846FFF7AEFF00210120FFF7D5
:1027E000AAFFB8E0F348844208D101210220FFF794
:1027F000A2FF00210220FFF79EFFACE0EE488442DA
:1028000008D101210420FFF796FF00210420FFF7E3
:1028100092FFA0E0E948844208D101210820FFF797
:102820008AFF00210820FFF786FF94E0E4488442F5
:1028300008D101211020FFF77EFF00211020FFF7B3
:102840007AFF88E0DF48844208D101212020FFF789
:1028500072FF00212020FFF76EFF7CE0DA488442FF
:1028600008D101214014FFF759FF00216014FFF740
:1028700055FF70E0D548844209D10121C804FFF713
:102880004DFF00214FF40020FFF748FF63E0D048E0
:10289000844209D101210805FFF740FF00214FF4D0
:1028A0008010FFF73BFF56E0CA48844209D101215E
:1028B0004805FFF733FF00214FF40010FFF72EFF0C
:1028C00049E0C548844208D101214020FFF733FF89
:1028D00000214020FFF72FFF3DE0C048844208D18F
:1028E00001218020FFF727FF00218020FFF723FF31
:1028F00031E0BB48844208D101218015FFF71BFF5E
:102900000021A015FFF717FF25E0B648844209D142
:1029100001210804FFF702FF00214FF48030FFF788
:10292000FDFE18E0B048844209D101214804FFF7B8
:10293000F5FE00214FF40030FFF7F0FE0BE0AB484E
:10294000844208D101218804FFF7E8FE00214FF4FA
:102950008020FFF7E3FE10BD00220288944B9842CE
:102960000ED0994B98420BD0B0F1804F08D0914BCC
:10297000984205D0904B984202D0904B984204D197
:102980004FF68F731A404B881A438D4B984207D0ED
:102990008C4B984204D04FF6FF431A40CB881A4321
:1029A00002808B8883850B880385814B98420BD0EE
:1029B000854B984208D08B4B984205D08A4B984261
:1029C00002D08A4B984201D10B7A0386012383827D
:1029D000704770B5002400220023058C4FF6FE7668
:1029E00035400584028C8388048B4FF68F752C400C
:1029F000B51E2C400D882C43751E2A400D892A4394
:102A00004D882A436A4DA8420BD06F4DA84208D08A
:102A1000744DA84205D0744DA84202D0734DA8420F
:102A200013D14FF6F7752A404D892A434FF6FB75AF
:102A30002A408D882A434FF6FF652B404FF6FF55FD
:102A40002B408D892B43CD892B4383800483CD88F4
:102A50008586028470BD70B5002400220023058C99
:102A60004FF6EF7635400584028C8388048B48F658
:102A7000FF752C404FF6FF452C400D884FF6FF7632
:102A800006EA05252C434FF6DF752A400D8906EA34
:102A900005152A434D8806EA05152A43444DA842E8
:102AA00002D0494DA8421DD14FF67F752A404D896D
:102AB0004FF6FF7606EA05152A434FF6BF752A4002
:102AC0008D8806EA05152A434FF6FF352B404FF255
:102AD000FF752B408D8906EA85052B43CD8906EAD3
:102AE00085052B4383800483CD880587028470BDD0
:102AF00070B5002400220023058C4FF6FF66354098
:102B00000584028C8388848B4FF68F752C404FF69A
:102B1000FC752C400D882C434FF6FF552A400D893B
:102B20004FF6FF7606EA05252A434D8806EA052575
:102B30002A431F4DA84202D0234DA8421DD14FF277
:102B4000FF752A404D894FF6FF7606EA05252A4390
:102B50004FF6FF352A408D8806EA05252A434EF6B2
:102B6000FF752B404DF6FF752B408D8906EA051544
:102B70002B43CD8906EA05152B4383808483CD88BA
:102B80008587028470BD70B5002200230024058C67
:102B90004EF6FF7635400584038C8488828B48F698
:102BA000FF752A404FF6FF452A400D8820E00000BF
:102BB000002C01400004004000080040000C0040D0
:102BC000001000400014004000340140004C01405F
:102BD000005001400054014000180040001C00401B
:102BE00000200040004001400044014000480140F6
:102BF0004FF6FF7606EA05252A434DF6FF752B4072
:102C00000D8906EA05352B434D8806EA05352B4329
:102C1000FA4DA84202D0FA4DA84208D14BF6FF75F2
:102C20002C408D894FF6FF7606EA85152C4384806B
:102C30008283CD88A0F84050038470BD828B4FF210
:102C4000FF331A408283828B4FF6FF7303EA01231E
:102C50001A4382837047F0B50C46154600220021C6
:102C60000026078C4EF6FF7C07EA0C070784828B50
:102C7000018C4FF6FF7707EA043640F6FF473A40EB
:102C80004FF6FF7707EA05273A434FF6FF7707EA43
:102C900003373A43D94FB8420ED0D94FB8420BD080
:102CA000B0F1804F08D0D74FB84205D0D64FB842C8
:102CB00002D0D64FB84206D14DF6FF77394046F4E0
:102CC0008057394305E047F6FF57394044F48057B1
:102CD000394382830184F0BD828B4FF6F3731A402F
:102CE0008283828B0A4382837047F0B50C46154677
:102CF000002200210026078C4FF6FF6C07EA0C0724
:102D00000784828B018C4FF6FF7707EA04264FF683
:102D10000C773A404FF6FF7707EA03172F433A4301
:102D2000B64FB8420ED0B64FB8420BD0B0F1804F7C
:102D300008D0B44FB84205D0B34FB84202D0B34F19
:102D4000B84206D14FF6FF57394046F480773943F1
:102D500005E04FF2FF57394044F4807739438283CE
:102D60000184F0BD028B4FF2FF331A400283028BC5
:102D70004FF6FF7303EA01231A4302837047F0B54D
:102D80000C461546002200210026078C4FF6EF7CEA
:102D900007EA0C070784028B018C4FF6FF7707EADE
:102DA000041640F6FF473A404FF6FF7707EA03372D
:102DB0003A434FF6FF7707EA05273A438F4FB84269
:102DC0000ED08F4FB8420BD0B0F1804F08D08D4F4E
:102DD000B84205D08C4FB84202D08C4FB84206D1D1
:102DE0004FF6DF77394046F01007394305E04FF6DC
:102DF0005F77394044F01007394302830184F0BD06
:102E0000028B4FF6F3731A400283028B0A4302834C
:102E10007047F0B50C46154600220021068C4FF68F
:102E2000FE773E400684028B018C4FF60C763240D2
:102E30007E1C06EA03162E433243704EB0420ED07B
:102E40006F4EB0420BD0B0F1804F08D06D4EB04203
:102E500005D06D4EB04202D06C4EB04206D14FF656
:102E6000FD76314044F00106314305E04FF6F5763A
:102E7000314044F00106314302830184F0BD70B556
:102E800005460C465D4885420ED05D4885420BD014
:102E9000B5F1804F08D05B48854205D05A4885423D
:102EA00002D05A48854200D100E000BF208850B9C6
:102EB0002389A28861882846FFF7ABFFE18828466E
:102EC000FFF79EFF25E0208804280AD12389A288E5
:102ED00061882846FFF753FFE1882846FFF742FF45
:102EE00017E0208808280AD12389A288618828460B
:102EF000FFF7FBFEE1882846FFF7EEFE09E0238995
:102F0000A28861882846FFF7A6FEE1882846FFF7D9
:102F100095FE70BD2DE9F04105460C4600260127BF
:102F2000608808B9022600E00026A088012801D1A7
:102F3000022700E001272088A0B92389A2886188A0
:102F40002846FFF766FFE1882846FFF759FF2389E7
:102F50003A4631462846FFF712FFE1882846FFF738
:102F600001FF13E02389A28861882846FFF707FF45
:102F7000E1882846FFF7F6FE23893A46314628467F
:102F8000FFF747FFE1882846FFF73AFFBDE8F081E9
:102F90000A884B881A438B881A43CB881A430B89BB
:102FA0001A434B891A438B891A43A0F8442070476F
:102FB0004FF6FF71818000210180C1804180017244
:102FC00070470021018041808180C1800181418161
:102FD0008181C18170470021018041800121818070
:102FE0000021C180018170470021018041808180E2
:102FF000C18001814181818170470000002C014026
:10300000003401400004004000080040000C004073
:1030100021B1028842F00102028004E002884FF6EA
:10302000FE731A400280704731B1B0F8442042F478
:103030000042A0F8442005E0B0F84420C2F30E029C
:10304000A0F8442070471AB183890B43838102E0C2
:1030500083898B43838170478182704741EA0203F1
:10306000A0F8483070471AB183890B43838102E08E
:1030700083898B438381704701894FF6F872114031
:10308000018170470A46002101894FF68F7319406C
:1030900011430181704730B504460D46294620464C
:1030A000FFF7F0FF208940F00700208130BD2DE9B7
:1030B000F04104460D4616461F46602D06D13B469C
:1030C000012231462046FFF75AFE05E03B46012229
:1030D00031462046FFF79DFE29462046FFF7D2FFE6
:1030E000208940F007002081BDE8F08130B50C4612
:1030F00000210189C9B24FF6FF7505EA0325154382
:1031000025432943018130BD2DE9F04105460E4696
:1031100017469846002443463A4631462846FFF76C
:10312000E5FF2C894FF6F870044044F007044FF691
:103130008F70044044F070042C81BDE8F081F0B53C
:1031400004460D4616461F463B4632462946204653
:10315000FFF7CCFF208940F480402081F0BD01853D
:10316000828270470A46002101884FF68F7319400A
:10317000114301807047F0B50C4615461E460021EC
:10318000002200230189028B038C4FF6F877394027
:1031900021434FF6FC473A4040F201173A434FF6BD
:1031A000DD773B404FF6FF7707EA06172F433B4397
:1031B000018102830384F0BD0A460021018B4FF692
:1031C0008F7319401143018370470A460021018B18
:1031D00048F6FF7319404FF6FF7303EA02231943C1
:1031E000018370470A460021818B4FF68F73194087
:1031F0001143818370470A460021818B48F6FF7393
:1032000019404FF6FF7303EA022319438183704785
:1032100021B1028842F08002028004E002884FF669
:103220007F731A400280704721B1828842F0040205
:10323000828004E082884FF6FB731A4082807047D8
:1032400021B1828842F00802828004E082884FF631
:10325000F7731A408280704721B1828842F00102E0
:10326000828004E082884FF6FE731A4082807047A5
:103270000A460021018B4FF6F77319401143018371
:1032800070470A460021018B4FF2FF7319404FF639
:10329000FF7303EA02231943018370470A460021A2
:1032A000818B4FF6F77319401143818370470A46AB
:1032B0000021818B4FF2FF7319404FF6FF7303EA31
:1032C00002231943818370470A460021018B4FF680
:1032D000FB7319401143018370470A460021018B9B
:1032E0004FF6FF3319404FF6FF7303EA02231943E9
:1032F000018370470A460021818B4FF6FB7319400A
:103300001143818370470A460021818B4FF6FF33BA
:1033100019404FF6FF7303EA022319438183704774
:103320000A460021018B4FF67F7319401143018338
:1033300070470A460021018BC1F30E014FF6FF735F
:1033400003EA02231943018370470A460021818B57
:103350004FF67F7319401143818370470A4600215D
:10336000818BC1F30E014FF6FF7303EA0223194369
:10337000818370470A460021018C4FF6FD73194086
:103380001143018470470A460021018C4FF6F77300
:1033900019401143018470470A460021018C4FF601
:1033A000DF7319404FF6FF7303EA021319430184D8
:1033B00070470A460021018C4FF67F7319404FF683
:1033C000FF7303EA02131943018470470A46002180
:1033D000018C4FF6FF5319404FF6FF7303EA0223A7
:1033E0001943018470470A460021018C4FF2FF7394
:1033F00019404FF6FF7303EA022319430184704713
:103400000A460021018C4DF6FF7319404FF6FF73F9
:1034100003EA023319430184704730B500230124C5
:103420008C40A3B2048C9C430484048C02FA01F502
:10343000ADB22C43048430BD30B5002304248C404D
:10344000A3B2048C9C430484048C02FA01F5ADB24F
:103450002C43048430BD70B5034600200024184678
:10346000183001258D40ACB21D8CA5431D8409B1D7
:10347000082909D100EB6100056825F07005056099
:103480000568154305600EE00D1FC5F34E05284481
:10349000056825F4E045056005684FF6FF7606EA05
:1034A00002263543056070BD21B1028842F0020258
:1034B000028004E002884FF6FD731A4002807047D4
:1034C00021B1028842F00402028004E002884FF633
:1034D000FB731A400280704721B1828842F080025B
:1034E000828004E082884FF67F731A4082807047A2
:1034F00002884FF6F7731A40028002880A4302805E
:10350000704782884FF68F731A40828082880A4300
:103510008280704702894FF6F8731A40028102894F
:103520000A430281704702894FF67F731A40028175
:1035300002890A4302817047818470478185704700
:10354000818670470187704781877047A0F84010D7
:10355000704702884FF6FF431A40028002880A43F0
:10356000028070470146888E70470146088F704779
:103570000146888F70470146B1F840007047014608
:10358000888C70470146088D704702460020138AD8
:103590000B400BB1012000E000207047CA430282BB
:1035A000704730B50246002000230024158A05EA42
:1035B0000103958905EA010413B10CB1012000E073
:1035C000002030BDCA4302827047000010B5044697
:1035D000FB48844209D101218803FFF79FF80021AD
:1035E0004FF48040FFF79AF832E0F648844209D160
:1035F00001214804FFF79FF800214FF40030FFF746
:103600009AF825E0F048844209D101218804FFF7A7
:1036100092F800214FF48020FFF78DF818E0EB4876
:10362000844209D10121C804FFF785F800214FF435
:103630000020FFF780F80BE0E548844208D1012123
:103640000805FFF778F800214FF48010FFF773F8B2
:1036500010BD2DE9F04786B005460E460024A2466F
:1036600000BFA1460027B08900B100BF2F462C8AB9
:103670004CF6FF700440F08804432C82AC894EF66F
:10368000F3100440B088318908437189084304432A
:10369000AC81AC8A4FF6FF400440B0890443AC8251
:1036A00001A8FEF7B4FFC648874202D1DDF810A09A
:1036B00001E0DDF80CA0A88900F4004040B10AEB5D
:1036C000CA0000EB0A1031684900B0FBF1F807E0CE
:1036D0000AEBCA0000EB0A1031688900B0FBF1F870
:1036E0006420B8FBF0F004012009642101FB10897B
:1036F000A88900F4004040B1322000EBC900B0FBC3
:10370000F1F000F00700044308E0322000EB09105C
:103710006421B0FBF1F000F00F0004432C8106B0EF
:10372000BDE8F0874FF41651016000218180C1800F
:1037300001810C21418100218181704710B5024631
:103740000020108A4FF2FF0318400B884C88234357
:103750008C882343CC8823431843108210BD00215A
:10376000018041808180C180704721B1828942F40B
:103770000052828104E082894DF6FF731A408281F3
:103780007047F0B50346002400260025002040F6CF
:103790006A17B94200D100BF1846C1F3421401F0C4
:1037A0001F06012707FA06F5012C01D10C3004E0B1
:1037B000022C01D1103000E014301AB107682F43F9
:1037C000076002E00768AF430760F0BD1AB1838A63
:1037D0000B43838202E0838A8B4383827047028A91
:1037E0004FF6F0731A400282028A0A43028270473F
:1037F00082894FF2FF731A40828182890A43828153
:10380000704721B1828942F00202828104E08289FC
:103810004FF6FD731A4082817047028A4FF6DF73BC
:103820001A400282028A0A430282704721B1028A48
:1038300042F48042028204E0028A4BF6FF731A408F
:1038400002827047C1F3080282807047014688886F
:10385000C0F308007047818941F001018181704700
:10386000028BD2B20283028B42EA012202837047AA
:10387000028B02F47F420283028B0A430283704769
:1038800021B1828A42F02002828204E0828A4FF6CD
:10389000DF731A408282704721B1828A42F010029F
:1038A000828204E0828A4FF6EF731A408282704768
:1038B00021B1828A42F00802828204E0828A4FF6B5
:1038C000F7731A408282704721B1828942F4004224
:1038D000828103E08289C2F30E028281704721B1A6
:1038E000828A42F40062828204E0828A4FF2FF738D
:1038F0001A4082827047828A4FF6FB731A40828296
:10390000828A0A438282704721B1828A42F002028F
:10391000828204E0828A4FF6FD731A4082827047E9
:1039200002460020B1F5007F00D100BF13880B4094
:103930000BB1012000E00020704701F40072B2F5E5
:10394000007F00D100BFCA430280704770B50246B5
:10395000002400230025002040F66A16B14200D161
:1039600000BFC1F3421501F01F03012606FA03F35D
:10397000012D02D19689334006E0022D02D1168A2C
:10398000334001E0968A33400C12012606FA04F413
:103990001688344013B10CB1012000E0002070BD46
:1039A00010B50022002340F66A14A14200D100BFE6
:1039B0000A1201249440A3B2DC43048010BD00002D
:1039C000003801400044004000480040004C0040E6
:1039D0000050004001684FF6FE7211400160002166
:1039E000016041608160C1608D49884208D18C4985
:1039F0000839496841F00F01894A083A51608AE064
:103A000087491431884208D185490839496841F00D
:103A1000F001834A083A51607DE0814928318842AB
:103A200008D17F490839496841F470617C4A083AF5
:103A3000516070E07A493C31884208D178490839B0
:103A4000496841F47041764A083A516063E074492C
:103A50005031884208D172490839496841F47021CF
:103A60006F4A083A516056E06D496431884208D186
:103A70006B490839496841F47001694A083A516054
:103A800049E067497831884208D165490839496871
:103A900041F07061624A083A51603CE061498842F5
:103AA00006D1011F096841F00F01021F116032E0C9
:103AB0005C491431884208D15A49091F096841F00C
:103AC000F001584A121F116025E0564928318842FA
:103AD00008D15449091F096841F47061514A121F05
:103AE000116018E04F493C31884208D14D49091F07
:103AF000096841F470414B4A121F11600BE04949BB
:103B00005031884207D14749091F096841F47021A3
:103B1000444A121F1160704710B50022026847F630
:103B2000F0739A430C6A8B6823430C6923434C69F6
:103B300023438C692343CC6923434C6A23438C6A17
:103B400023431A430260CB6843600B6883604B6871
:103B5000C36010BD0021016041608160C1600161EE
:103B600041618161C161016241628162704721B13D
:103B7000026842F00102026004E002684FF6FE7340
:103B80001A40026070471AB103680B43036002E0F9
:103B900003688B4303607047416070470146486883
:103BA00080B2704701460020002201F080531BB113
:103BB0001C4B083B1A6802E0194B083B1A6802EAE2
:103BC00001030BB1012000E00020704700F080519C
:103BD00019B11449091F086002E011490839486009
:103BE000704701460020002201F080531BB10D4BAD
:103BF000083B1A6802E00A4B083B1A6802EA010314
:103C00000BB1012000E00020704700F0805119B195
:103C10000449091F086002E00149083948607047FB
:103C2000080002400804024010B50446FA488442E5
:103C300008D101214015FEF771FD00216015FEF746
:103C40006DFD17E0F548844208D101210015FEF70B
:103C500065FD00212015FEF761FD0BE0F048844270
:103C600008D10121C803FEF759FD00214FF400409F
:103C7000FEF754FD10BD30B5024600200023506809
:103C8000E84C20400D790C6844EA0524204350603C
:103C90009068E54C2040D1E902542C434D7944EA28
:103CA000450420439060D06A20F470000C7C641EB0
:103CB000E4B2234340EA0350D06230BD00210160EA
:103CC000017141718160C16001210174704721B1AE
:103CD000826842F00102826003E0826822F0010201
:103CE0008260704721B1826842F48072826003E092
:103CF000826822F480728260704710B50023CBB2D4
:103D00001AB144681C43446002E044689C43446028
:103D100010BD816841F008018160704701460020B4
:103D20008A6802F008020AB1012000E00020704712
:103D3000816841F0040181607047014600208A6873
:103D400002F004020AB1012000E00020704721B116
:103D5000826842F4A002826003E0826822F4A0023A
:103D600082607047014600208A6802F480020AB12E
:103D7000012000E00020704710B50A460021002312
:103D8000416821F46041531E41EA4331416010BD56
:103D900021B1426842F40062426003E0426822F4CA
:103DA000006242607047F0B504460D4600200021D5
:103DB000092D11DDE068A5F10A0606EB4607072686
:103DC00006FA07F18843A5F10A0606EB460603FA50
:103DD00006F10843E0600CE0206905EB4507072683
:103DE00006FA07F1884305EB450603FA06F1084396
:103DF0002061072A0FDA606B561E06EB86071F2626
:103E000006FA07F18843561E06EB860605FA06F108
:103E10000843606322E00D2A0FDA206BD61F06EB01
:103E200086071F2606FA07F18843D61F06EB86068B
:103E300005FA06F10843206310E0E06AA2F10D06DE
:103E400006EB86071F2606FA07F18843A2F10D0646
:103E500006EB860605FA06F10843E062F0BD21B1E3
:103E6000826842F48012826003E0826822F4801249
:103E7000826070470146C86C80B2704766484C301B
:103E80000068704721B1426842F48062426003E0FA
:103E9000426822F480624260704721B1426842F475
:103EA0008052426003E0426822F4805242607047D0
:103EB0000A460021816821F4E04111438160704786
:103EC00021B1826842F40042826003E0826822F4F9
:103ED00000428260704721B1826842F4021282601F
:103EE00003E0826822F402128260704701460020DB
:103EF0008A6802F400120AB1012000E00020704735
:103F0000F0B504461546002000220026092911DDDF
:103F1000E068A1F10A0707EB470C072707FA0CF244
:103F20009043A1F10A0707EB470703FA07F2104392
:103F3000E0600CE0206901EB410C072707FA0CF266
:103F4000904301EB410703FA07F210432061A06B95
:103F5000C0F30156EF1C06F1010CA7EB0C0707EBB1
:103F6000870C1F2707FA0CF29043EF1C06F1010C97
:103F7000A7EB0C0707EB870701FA07F21043A063D2
:103F8000F0BD10B50A4600210023816B21F44011D9
:103F9000531E41EA0351816310BD08B5002300930D
:103FA0000090009B0B440093009B1A6008BD08B56D
:103FB000024600200090009201F12800009B184466
:103FC00000900098006880B208BD0A460021416850
:103FD000164B19401143416070474162826270473D
:103FE0000A460021416821F01F01114341607047DA
:103FF00040B109490831096841F40001064A083214
:10400000116007E004490831096821F40001024AFF
:104010000832116070470000002401400028014070
:10402000003C0140FFFEF0FFFDF7F1FFFFFD3FFF09
:104030000246002013680B400BB1012000E0002075
:104040007047CA430260704770B5024600200023E3
:1040500000240B125568CEB205EA060415681D400F
:1040600015B10CB1012000E0002070BD00220A1241
:10407000D3430360704770470FB4044910B503AAD7
:10408000029800F065FB10BC5DF814FB5C0000209A
:104090000FB41CB5074B06AA7B44694600900598EF
:1040A00000F03DFB0020694600F04CFB1CBC5DF8B5
:1040B00014FB0000A90600002DE9F041064600248B
:1040C00010687529314616A510D0AFF3008000287E
:1040D00002DA404213A507E031688A0701D512A52C
:1040E00002E0490704D511A5012401E0AFF30080E7
:1040F00000210A2206F1240709E0B0FBF2FCB0FB24
:10410000F2F302FB1C00303078541846491C00289A
:10411000F3D123462A463046BDE8F04100F093B87B
:10412000000000002D0000002B0000002000000017
:104130002DE9F0474FF0000A89460446C0F820A058
:104140002046E1688847002876D0252806D0D4E9A3
:1041500001219047206A401C2062F1E7E168204677
:1041600000258847C4F81CA006460027C4F818A0FC
:104170002A2E09D0304601F038F838B304EB87080E
:10418000303EC8F8186019E059F8041B204604EBCB
:1041900087029161E1688847012F064618D1E069DE
:1041A000002820DA25F020051DE0D8F8180000EBE3
:1041B000800006EB40003038C8F818002046E1685F
:1041C0008847064601F011F80028EED1012F0AD0E9
:1041D0002E2E08D12046E16888477F1C0646022F14
:1041E00045F02005C4DBA069002803DA404245F011
:1041F0000105A061E80701D025F01005B6B1A6F1D0
:104200004100192802D8203645F400654A46314657
:10421000204625604D46FBF7C5FF58B1012806D062
:10422000ED1D25F0070000F1080989E704E005F11C
:10423000040985E730468AE7206ABDE8F0877047C1
:104240007047704770472DE9F0470D4699469246F2
:10425000044600F124080168880604D5E06921F0CD
:104260001001216000E00120A84201DD471B00E0B1
:104270000027A1697A1902EB0900081AA0612078C9
:10428000C00602D42046AFF30080002608E0D4E93F
:1042900001211AF806009047206A401C761C206213
:1042A0004E45F4DB2078C0060AD52046AFF30080E7
:1042B00006E0D4E9012130209047206A401C2062AA
:1042C000381EA7F10107F4DC07E0D4E9012118F852
:1042D00005009047206A401C2062281EA5F10105B8
:1042E000F3DC2046AFF300802078000602D50220E0
:1042F000BDE8F0870120FBE770472DE9FF4F0C4632
:104300001E464FF0FF378BB0D2E90001DDF8608028
:104310000A908A46C1F30A5505B93D460021084670
:104320004FF00000BAF1000F00F4400005DA00EB96
:1043300080004FF4400101EA50004FEA9059B9F172
:10434000010F00DDB9460A9850EA4A000ED044F643
:104350001050A5F2FF3545432F14B8F1000F1ED0C1
:104360007542291E1EDDC9F100021CE0B8F1010FE3
:104370004FF0000001D0302103E0F24305E021546A
:10438000401CB042FBDB30460022002121540B9937
:10439000C1F80880C1E900200FB0BDE8F08FBD1B57
:1043A0006D1CDEE74A4600DA694206A800F06CFAA6
:1043B00006AB93E8070003AB83E8070050460A9971
:1043C00000F044FB8DE80700A0F500501F38009076
:1043D0000398002D09DD42F21F014A46084403A953
:1043E0000390684600F0A3FD08E0A0F500504A469F
:1043F0001F3803A90390684600F0ADFD8DE8070063
:104400000004000C03D04FF0FF30410800E01046DC
:10441000B8F1000F03D00022009215461EE0751E71
:1044200005D400F0ABF9303262556D1EF9D5B346B4
:104430000122084302D000227F1C04E020783028AB
:1044400001D100227F1E002A099786D01DE0112D80
:1044500007DA00F093F9303262556D1C50EA010220
:10446000F5D1084302D00098C8B10EE00021681EC3
:1044700005E0235C625C63542254401E491C814267
:10448000F7DBAB46A81B401E0990002004F80B0088
:104490000B98099AC0F80880C0E9002B7CE7112628
:1044A0004FF0000859E72DE9F04F88460446D21D29
:1044B00022F0070191B0D1E90001CDE90A0100F035
:1044C00080FE02460B98C00F01D02D2007E0206827
:1044D000810701D52B2002E0202101EAC000032A38
:1044E000099001D0072A05DB03464146204600F02B
:1044F0008BF90BE12078800601D5E06900E0062009
:10450000B8F1650F814606D0B8F1660F18D0B8F142
:10451000670F70D131E00020B9F1110F009001DB7D
:10452000112301E009F101030AAA01A90CA8FFF770
:10453000E4FEDDE90C70002609F10105834647E041
:1045400001204B4600904FF000470AAA01A90CA891
:10455000FFF7D3FEDDE90DB00C995D46002610B9DA
:1045600009F101000D18B9EB050003D4C0F1FF36C5
:1045700009F10105A5EB09002BE0B9F1010F01DA02
:104580004FF001090020B9F1110F0090484601DDFC
:10459000112300E003460AAA01A90CA8FFF7ADFE0B
:1045A000DDE90C704D4600268346207800070AD4CA
:1045B000AB4500DA5D4601A8012D04DD411911F873
:1045C000011C302907D04F4502DA17F1040F04DA35
:1045D000012082460FE06D1EEEE7002F02DCED1B8E
:1045E0003E4403E0781CA84200DD7D1CB81B00F1AE
:1045F000010A4FF000472078000703D4AA4501DBE9
:104600004FF0FF3A0021B7F1004F0DF143088DF84C
:10461000431024D002202B23002F01DA7F422D23C8
:104620000A21021EA0F1010000DC5FB197FBF1FC42
:1046300097FBF1F201FB1C7C17460CF1300C08F8DB
:1046400001CDEEE7A8F1010003702188090501D52D
:10465000452100E06521A0F1010800F8011C09983E
:104660000FA9A1EB0807FF1D00B10120411901EBC3
:10467000EA70A1693844081A401EA0612078C0067B
:1046800002D42046AFF30080099828B1D4E9012173
:104690009047206A401C20622078C00622D5204620
:1046A000AFF300801EE0002E04DBB34502DD01A85D
:1046B000805D00E03020D4E901219047206A401C51
:1046C0002062761CAAF101005FEA000A0AD100F01C
:1046D00051F8C0680168405CD4E901219047206A24
:1046E000401C2062281EA5F10105DCDC07E0D4E9AE
:1046F000012118F8010B9047206A401C2062381EE7
:10470000A7F10107F3DC2046AFF30080032011B0CE
:1047100043E6000001694A1C02610878704700B551
:104720008FB0CDE901310021059105497944CDE9EA
:10473000031011466846FFF7FBFC0FB000BD0000F8
:10474000E5FFFFFF0A6802F8010B0A6070470000EE
:10475000074B70B50D467B44FFF7E1FF0446284642
:1047600000F000F910B14FF0FF3070BD204670BD71
:1047700001D7FFFF00487047C401002030B5B0F1F9
:104780000A024FEA900E71F100034EEA817EB0EB0F
:104790000E0061EB91014FEA101E4EEA017E10EB14
:1047A0000E0041EB11114FEA102E4EEA016E10EB94
:1047B0000E0041EB11214FEA104E4EEA014E10EB74
:1047C0000E0041EB1141401841F100014FEAD000C9
:1047D00040EA41704FEAD10110EB80054FEA8104B5
:1047E00044EA907444EB01046D1944EB0404521B39
:1047F000A3414FF0000348BF0A3200D530BD401C32
:1048000041F1000130BD00002DE9F0411F46044692
:1048100003260168072A01F4006004DB08B116A52D
:1048200005E016A503E008B115A500E015A521F0E7
:1048300010002060A069C01EA0610FB1401EA061E1
:104840002046AFF300804FB1D4E9012138469047AC
:10485000206A401C2062C01C206206E0206AFAE741
:10486000D4E9012115F8010B9047761EF8D22046B5
:10487000AFF30080BDE8F0814E414E006E616E00E6
:10488000494E4600696E66002DE9F047814616469E
:104890008AB0334878440DC88DE80D00304878441C
:1048A000801C03AC0DC884E80D0041F69B30084421
:1048B000372190FBF1F290FBF1F5A5F1800501FBAA
:1048C00012041B3C02D56442012000E00020DFF806
:1048D00090A080460027FA44AAF1BE0A0DE0E00746
:1048E00009D03246684607EB47010AEB810100F028
:1048F00032FB8DE8070064107F1C002CEFD1184FAD
:104900007F44AC3F18E0E80714D007EB04100DF12A
:10491000180A90E80E008AE80E00C068F04201D143
:1049200098190890324606A903A800F014FB03ABBF
:1049300083E807006D10641C002DE4D132466946FF
:10494000B8F1000F03A802D000F0F1FA01E000F086
:1049500002FBC9E90001C9F808200AB0BDE8F087E8
:1049600008170000007B00F0800070470048704787
:10497000A40100207546FFF7F9FFAE460500694621
:10498000534620F00700854618B020B5FDF710FB10
:10499000BDE820404FF000064FF000074FF0000840
:1049A0004FF0000B21F00701AC46ACE8C009ACE8C1
:1049B000C009ACE8C009ACE8C0098D4670470446A0
:1049C000AFF300802046FBF70AFC00004FF0013CEB
:1049D00050F8042B51F8043B9A4221D1A2EB0C036E
:1049E000934313EACC1317D150F8042B51F8043B2E
:1049F0009A4215D1A2EB0C03934313EACC130BD1CB
:104A000050F8042B51F8043B9A4209D1A2EB0C0355
:104A1000934313EACC13DBD04FF00000704700BF84
:104A2000D01A01BAB1FA81F101F0180122FA01F0AD
:104A3000CB40C1F12001DBB2C0B2C01A2CFA01F3A5
:104A4000D11A914311EAC311E6D170475FEA400CD5
:104A500008BF91F0000F4FEA8C234FEAC12243EACE
:104A600051514FEA1C5018BF00F5F0404FEA30009A
:104A700018BF41F000415FEA6C5C00F02980BCF196
:104A8000FF3F08BF40F080407047130C06BF120480
:104A90004FF0100C4FF0000C130E04BF12020CF17B
:104AA000080C130F04BF12010CF1040C930F04BF88
:104AB00092000CF1020CD30F04BF52000CF1010C58
:104AC00011464FF00002A0F11F00A0EB0C00704750
:104AD00011F0004F08BF704731F000413FF4D5AFEF
:104AE0000B0C06BF09044FF0100C4FF0000C0B0E1E
:104AF00004BF09020CF1080C0B0F04BF09010CF1F3
:104B0000040C8B0F04BF89000CF1020CCB0F04BF07
:104B100049000CF1010CCCF12003A0EB0C0022FAAF
:104B200003F302FA0CF241EA030100F101007047BD
:104B300020F07F4C80EA030023F07F47ACEB0703B3
:104B400003F57C5300F0004003F1FF032DE9804999
:104B50004FEA154B09B44FEA144325EA0B4E24EAF9
:104B600003480FF2042606EB132749083E785FEA54
:104B7000320203FB0667C7F5000707FB06F64FEA9C
:104B800054374FEAD64606F1020607FB066CCCF115
:104B9000005C4FEA1C472CEA074C07FB06F40CFBB1
:104BA00006F504EB15464FEA961634BF00204FF089
:104BB00000404FEAD13706FB07FC4FEA1C4C0CFBC8
:104BC0000BF7D21B03FB0CF761EB07010CFB0EF795
:104BD000B0EB074072EB17420CFB08F734BFA2EBB7
:104BE0000742B2EB074261EB17414FEA0C444FEA30
:104BF000910706FB07FC4FEA1C4C0CFB0BF7B0EBD4
:104C0000C74072EB573203FB0CF734BFA2EBC7422D
:104C1000B2EBC74261EB57310CFB0EF7B0EBC700AC
:104C200072EB57720CFB08F734BFA2EBC702B2EB72
:104C3000C70261EB5771039F4FEA816141EA92110C
:104C400004EBCC044FEAD1374FEA826206FB07FC43
:104C500042EA90124FEA80604FEA1C4C0CFB0BF7C3
:104C6000D21B03FB0CF761EB07010CFB0EF7B0EB5B
:104C7000074072EB17420CFB08F734BFA2EB074268
:104C8000B2EB074261EB17414FEA8C554FEA9107AF
:104C900004EB9C2406FB07FC4FEA1C4C0CFB0BF7B7
:104CA000B0EBC74072EB573203FB0CF734BFA2EBFB
:104CB000C742B2EBC74261EB57310CFB0EF7B0EBCA
:104CC000C70072EB57720CFB08F734BFA2EBC702A8
:104CD000B2EBC70261EB577115EB4C254FEA8161CE
:104CE00041EA92114FEA82624FEAD13742EA9012CA
:104CF00006FB07FC44F100044FEA80604FEA1C4CBD
:104D00000CFB0BF7D21B03FB0CF761EB07010CFB51
:104D10000EF7B0EB074072EB17420CFB08F734BFFD
:104D2000A2EB0742B2EB074261EB174115EB1C15F2
:104D30004FEA813141EA92414FEA823242EA90429F
:104D40004FEA80304FEA0C7644F1000448EA03430E
:104D50004EEA0B484FF0000EB2EB080C71EB030764
:104D600024BF624639464EEB0E0E4FF0000B001882
:104D7000524149414BEB0B0BB2EB080C71EB0307B3
:104D80007BF1000B24BF624639464EEB0E0E4FF00E
:104D9000000B0018524149414BEB0B0BB2EB080CD6
:104DA00071EB03077BF1000B24BF624639464EEBE3
:104DB0000E0E51EA020718BF46F0010616EB0E76FA
:104DC00055F1000254F1000103D5BDE88901BDE8A9
:104DD0000088BDE88901BDE80048B619524141EBA1
:104DE0000101A3F10103704780807F7E7D7C7B7A87
:104DF0007978777676757473727171706F6E6E6D87
:104E00006C6C6B6A6A69686867666665646463632C
:104E100062616160605F5F5E5E5D5D5C5C5B5B5AB2
:104E20005A5959585857575656555555545453531F
:104E300052525251515050504F4F4F4E4E4D4D4D7A
:104E40004C4C4C4B4B4B4A4A4A49494948484847C5
:104E50004747474646464545454444444443434303
:104E60004342424242414141002B26D4770021D0A7
:104E70001CB54FEA370703B44FF010004FF0100194
:104E80004FF000000FBCBDE810400BF1010BBBF16F
:104E9000010F08BF5FEA170722BF12F1010211F1EB
:104EA00001014FF0004143F1000300F0004043EAEC
:104EB00000007047F9D35708DAE746EA064613F1CF
:104EC000400F4FEA16461FDD13F1200FDFBF1643D8
:104ED0000A46002120335B42C8D0C3F1200746EACE
:104EE000064602FA07F74FEA164646EA0706C3F1F6
:104EF000200722FA03F201FA07F721FA03F14FF033
:104F0000000342EA0702B1E746EA020646EA06461D
:104F10004FEA164646EA0106BCBF46EA0646360C8C
:104F20004FF000034FF000024FF000019EE72DE923
:104F3000C048934630B491E8380007C831EA400CC5
:104F400048BF34EA430C03D5FFF7F2FDFFF78CFFAF
:104F5000F0BCBDE800882DE9C048934630B491E824
:104F6000380007C810F0804F08BF13F0804F03D1FE
:104F700000F005F8FFF778FFF0BCBDE8008820F0EE
:104F80007F4780EA030023F07F4C07EB0C03A3F577
:104F90007C5300F00040A3F1FE0392F0000F00F0FC
:104FA000B38095F0000F00F077802DE901494FEABA
:104FB00011404FEA144621EA004800FB06FC24EAAF
:104FC000064708FB06F607FB08F800FB07F718EB97
:104FD00006484CEB164C4FEA124B18EB07484FEAC9
:104FE00015464CEB174022EA0B4E0BFB06FC25EA5C
:104FF00006470EFB06F607FB0EFE0BFB07F71EEB44
:10500000064E4CEB164C4FF000061EEB074E4CEBD9
:10501000174B18EB0B0840F1000018EB0E0B58EB88
:10502000000840F100008F1A4FF000013CBFC94357
:10503000661B14BFB5EB040C00213CBFC943F61B33
:105040004FEA17444EEA8E0E27EA04454FEA1C4702
:1050500004FB07622CEA074C05FB07F70CFB05F67F
:1050600004FB0CFC16EB074642EB174216EB0C4612
:1050700042EB1C421BEB060658EB0202414146EA9A
:105080009E0601D5BDE80189B619524141EB0101E7
:10509000A3F10103BDE801894FEA14454FEA114726
:1050A00024EA054621EA074C05FB07F406FB07F74F
:1050B0000CFB06F105FB0CFC11EB074144EB17441C
:1050C0004FEA124711EB0C4144EB1C4422EA074C17
:1050D00005FB07F206FB07F70CFB06F605FB0CFCCD
:1050E00016EB074642EB174216EB0C4642EB1C450B
:1050F0006A1854F1000148BF7047B619524141EB9C
:105100000101A3F10103704795F0000F37D04FEA7A
:1051100011424FEA144721EA024624EA074C02FBF7
:1051200007F106FB07F70CFB06F402FB0CFC14EB83
:10513000074441EB17414FEA154714EB0C4441EB90
:105140001C4125EA074C02FB07F506FB07F70CFBA1
:1051500006F602FB0CFC16EB074645EB174516EB73
:105160000C4645EB1C42121951F1000148BF704733
:10517000B619524141EB0101A3F1010370474FEA17
:1051800014454FEA114724EA054621EA074C05FB7E
:1051900007F106FB07F70CFB06F24FF0000605FBD4
:1051A0000CFC12EB074241EB174112EB0C4251EBA6
:1051B0001C4148BF7047921841EB0101A3F1010364
:1051C0007047490050EAC12018BF04204A0D18BF9B
:1051D00040F0010040F2FF72B2EB515F08BF40F0B7
:1051E0000200012808BF0520704730380A2801D284
:1051F000012070470020704710B500290AD00878B8
:10520000002807D005487844FFF7E0FB002801D0CC
:10521000002010BD0248784410BD0000D20D0000EF
:10522000CA0D000021F00042A2F16052B2F5801FC9
:1052300001F0004328BFD2F17F6C0BD95FEA001C5C
:1052400043EAC20242EB507018BF704728BF20F0FB
:1052500001007047B2F5801FBCBF184670474FEA87
:10526000410C1CF5001F02D2084600F0ACBD70B521
:1052700000F094FA00000089FFF7F6BF4FF00040FD
:10528000A0F580007047491058BFC1F140415B1044
:1052900058BFC3F140438B42EFF3008070470000DA
:1052A0002DE9C04130B4DFF8A0C23CEA111418BFA8
:1052B0003CEA131400F0EC8081EA03051CEA1114A7
:1052C00044EAD57418BF1CEA131500F0C780A4EB9C
:1052D00005044FF0004545EAC12145EAC32341EAF0
:1052E000505143EA525304F17F74994204F500345B
:1052F0004FEAC0204FEAC22208BF904200F09C80D3
:105300004FEA13650FF24016765D4FEA134506FB30
:1053100005F7C7F1807706FB07F74FEAD737A7FBFA
:1053200003687642C8F58038A7FB06CE38BFA8F1DF
:10533000010807FB08E64FF0000EA6FB028CE6FB17
:1053400003CEDCF1000CCEF1004E38BFAEF1010E01
:10535000A6FB0C584FF000074FF00005E6FB0E8748
:10536000A1FB08C6A0FB07CE16EB0E0645F1000513
:10537000E1FB076515F1E04E7EBFA4F580345FEADE
:1053800046066D4116F1800745F100054FEA1727E3
:105390004FEA066647EA0567A6F1DE46B6F1805F8A
:1053A0004FEA15251FD9384624F0010C05EBC471CE
:1053B000BCF1FE6F01EB0C1102D8F0BCBDE800811E
:1053C00024425CBF01F5801E9EEAC47F02D4F0BC7B
:1053D000BDE80081244238D4F0BCA1F1C041BDE851
:1053E000004100F029BA4FEAD22242EA43524FEA82
:1053F000D323A7FB02864FEAD02040EA415007FBA7
:1054000003661EEA0E0F4FEAD12105FB026658BF64
:10541000A6EB0056B6EB00564FEA520E4EEAC37E9C
:1054200018EB0E0E56EB530EBDD518EB02085E417D
:105430007F1C55F10005B6E74FF480154FF00007CB
:105440004FF000064FF00008ADE7F0BC4FF0000051
:1054500001F1C04101F00041BDE8008111EA0C1FDB
:105460000CEA131500D00CE013EA0C1F00F02580A5
:105470004FF00000F0BC81EA030101F00041BDE8FB
:105480000081F0BCBDE8004181EA030100F0D4B91D
:10549000F0BCBDE8004170B500F080F9097EFC3E2B
:1054A00000F007B881EA03014FF0000001F000416D
:1054B000704781EA030100F0BFB9F0BCBDE80041CC
:1054C0004FF0000021497047FFFDFBF9F7F5F4F2BA
:1054D000F0EEEDEBE9E8E6E4E3E1E0DEDDDBDAD88F
:1054E000D7D5D4D3D1D0CFCDCCCBCAC8C7C6C5C4ED
:1054F000C2C1C0BFBEBDBCBBBAB9B8B7B6B5B4B304
:10550000B2B1B0AFAEADACABAAA9A8A8A7A6A5A4EE
:10551000A3A3A2A1A09F9F9E9D9C9C9B9A999998B2
:105520009797969595949393929191908F8F8E8E55
:105530008D8C8C8B8B8A89898888878786858584E2
:1055400084838382828181800000FF070000F87FCE
:105550004FEA1153A3F58063D3F11E03A8BFD3F123
:10556000200C08DB4FF0004242EAC12252EA5052BE
:1055700032FA03F0704709420BD4102BC4BF00204D
:10558000704703F5787CBCF1FF3F05D04FF0FF304A
:1055900070474FF00000704770B500F0FFF800BF93
:1055A0004992248000207047F0E7B0FA80F310FAA7
:1055B00003F10AD0C3F11D0303F580634FEA4150A4
:1055C0004FEA035202EBD12170474FF000007047C1
:1055D00051EA030C17D41CF5801F58BFBCF5801F7F
:1055E00000F10680994218BF704708BF904270478B
:1055F00007D711F5801F58BF13F5801F19D49942A2
:105600007047894270471CF5801F08D5BCF5801F84
:10561000F7D58B4218BF704708BF824270474FF4DE
:10562000001C1CEB410F38BF1CEB430F01D28B4217
:10563000704770B500F0B2F8922449004FF0005165
:105640004FF08053FFF71FBEDFF848C170B51CEA6A
:10565000111E1EBF1CEA13159EEA0C0F95EA0C0FD3
:1056600000F06F8081EA030423EA4C134EEAD47EF3
:1056700021EA4C1141F4801143F48013AE44A1FBA4
:10568000024CA0FB0365AEF17F7E361955EB0C058D
:10569000A1FB034C4CF10003A0FB021C16EB0C0613
:1056A000654153F10003094218BF46F0010613F4A7
:1056B000007F0BD14FEA03314FEA0530340341EA52
:1056C000155140EA16506FF003020AE04FEAC32179
:1056D0004FEAC520F40241EA555140EA56506FF0B6
:1056E000020202EB2E4201EB025585EACE710AD08E
:1056F0005FEA440C18BF24F0004450F1000041F16F
:10570000000120EAD47040F2FE7C624500D270BDF8
:10571000A84214BF4FF080444FF04044002E08BF11
:105720000024BEF1806FA8BFA1F1C041BDE8704068
:1057300080F282804FF0000001F1C04101F0004191
:1057400070479EEA0C0F0CEA131518BF95EA0C0F70
:1057500006D04FF0000081EA030E0EF0004170BD4C
:1057600000F01CF88900013E00F007B800F009B80D
:105770004FEA430C5FEA5C5C08D081EA030100F069
:105780005BB84FEA410C5FEA5C5CF6D14FF0000079
:10579000014970470000FF070000F87F0EF1020E7C
:1057A0002EF0030E5EF8046B364205D4012A43EB5B
:1057B000030515F5001F12D8012841EB010C1CF55B
:1057C000001F0CD80ED14FEAD17C15F5001F0CEB51
:1057D0004C0C0CF1020C08BF4CEBD37C04E04FF0F6
:1057E000080C01E04FEAD37C0CEB4C0526FA05F6D9
:1057F00006F00706B6F1040C06D20EEB860CBDE8E7
:1058000070404CF0010C6047DFE80CF0090B02021D
:105810004FF000414FF00000A1F5002170BD194686
:105820001046012851EB010418BFD4F5001484BFC1
:10583000002001F0004170BD0808A0F500114FEAFA
:105840003101704753EA010C17D41CF5801F58BF73
:10585000BCF5801F00F106808B4218BF704708BF5F
:105860008242704707D713F5801F58BF11F5801F7C
:1058700019D48B4270479B4270471CF5801F08D596
:10588000BCF5801FF7D5994218BF704708BF9042FA
:1058900070474FF4001C1CEB430F38BF1CEB410F4B
:1058A00001D2994270470FB40CBC03BCFFF7C1BED4
:1058B00043004FEAD30C4FEA3C0C43401FBF400764
:1058C0000CF1605113F0FE4F70471CF0006F03D1D4
:1058D00000200CF0004170470CF0004343EA507088
:1058E00010B540EACC0000F028FA00BF000000929A
:1058F0004FEA0001FFF7A0BF4FF000414FF000005A
:10590000A1F500217047000090EA010F48BF81F027
:10591000004100F19682421A3CBF801A89184FEA72
:10592000D0524FF07F4C1CEA410FA2EBD15318BF6D
:105930009CEA026F00F03B804FF0004C4CEA0020E4
:105940004CEA012121FA03FC10EB0C0C1ED202F1EF
:10595000FF325FEA1C2040EBC25038BF70471CF09A
:105960007F0F4FEA400C18BFBCF17F4F38BF704724
:10597000C3F12003994008BF20F00100BCF17F4F24
:1059800038BF7047A0F1C04000F01DBA4FEA3C009C
:10599000000A40EBC25028BF1CF0FF0F4FEA400C3A
:1059A000E6D018BFBCF17F4F38BF7047EAE79CEAEA
:1059B000026F05D010EA5C0F08BF00F0004070478E
:1059C00010B500F0BAF900BF64FBBE3E401058BFEE
:1059D000C0F14040491058BFC1F140418142EFF34E
:1059E000008070474FF47F0C1CEAD0121EBF1CEAE7
:1059F000D11392EA0C0F93EA0C0F00F0858090EA25
:105A0000010F48BF42F4807240F4000C41F40000E2
:105A10002CF07F4120F07F4000B58142A2EB0302D1
:105A20000FF2081CACEB504EC0F100009EF800E0F5
:105A30004FEA4E0E00FB0EFC38BF49004FEA2C1C0B
:105A400002F5FA020CFB0EF34FEACE1E4FEA112CC0
:105A50004FEAC1210EEB635E42EB22420EFB0CFCCF
:105A60004FEA1C5300FB03114FEA112C4FEA01319E
:105A70000EFB0CFC4FEADC4C00FB0C11C14228BFB2
:105A800009184CEB03335DF804EB10EB410143EBD9
:105A9000C250B2F57C0F38BF704729D512F0F00F15
:105AA0001CBF00F1C04000F00040704700818283BD
:105AB0008485868788898B8C8D8E8F91929395961D
:105AC00097999A9C9D9FA0A2A3A5A7A8AAACAEB0A7
:105AD000B2B3B5B7B9BCBEC0C2C5C7C9CCCED1D4AC
